{
  "_format": "hh-sol-artifact-1",
  "contractName": "Nft",
  "sourceName": "contracts/NFT.sol",
  "abi": [
    {
      "inputs": [
        {
          "internalType": "string",
          "name": "name",
          "type": "string"
        },
        {
          "internalType": "string",
          "name": "symbol",
          "type": "string"
        }
      ],
      "stateMutability": "nonpayable",
      "type": "constructor"
    },
    {
      "anonymous": false,
      "inputs": [
        {
          "indexed": true,
          "internalType": "address",
          "name": "owner",
          "type": "address"
        },
        {
          "indexed": true,
          "internalType": "address",
          "name": "approved",
          "type": "address"
        },
        {
          "indexed": true,
          "internalType": "uint256",
          "name": "tokenId",
          "type": "uint256"
        }
      ],
      "name": "Approval",
      "type": "event"
    },
    {
      "anonymous": false,
      "inputs": [
        {
          "indexed": true,
          "internalType": "address",
          "name": "owner",
          "type": "address"
        },
        {
          "indexed": true,
          "internalType": "address",
          "name": "operator",
          "type": "address"
        },
        {
          "indexed": false,
          "internalType": "bool",
          "name": "approved",
          "type": "bool"
        }
      ],
      "name": "ApprovalForAll",
      "type": "event"
    },
    {
      "anonymous": false,
      "inputs": [
        {
          "indexed": true,
          "internalType": "address",
          "name": "from",
          "type": "address"
        },
        {
          "indexed": true,
          "internalType": "address",
          "name": "to",
          "type": "address"
        },
        {
          "indexed": true,
          "internalType": "uint256",
          "name": "tokenId",
          "type": "uint256"
        }
      ],
      "name": "Transfer",
      "type": "event"
    },
    {
      "inputs": [
        {
          "internalType": "address",
          "name": "to",
          "type": "address"
        },
        {
          "internalType": "uint256",
          "name": "tokenId",
          "type": "uint256"
        }
      ],
      "name": "approve",
      "outputs": [],
      "stateMutability": "nonpayable",
      "type": "function"
    },
    {
      "inputs": [
        {
          "internalType": "address",
          "name": "owner",
          "type": "address"
        }
      ],
      "name": "balanceOf",
      "outputs": [
        {
          "internalType": "uint256",
          "name": "",
          "type": "uint256"
        }
      ],
      "stateMutability": "view",
      "type": "function"
    },
    {
      "inputs": [
        {
          "internalType": "uint256",
          "name": "tokenId",
          "type": "uint256"
        }
      ],
      "name": "getApproved",
      "outputs": [
        {
          "internalType": "address",
          "name": "",
          "type": "address"
        }
      ],
      "stateMutability": "view",
      "type": "function"
    },
    {
      "inputs": [
        {
          "internalType": "address",
          "name": "owner",
          "type": "address"
        },
        {
          "internalType": "address",
          "name": "operator",
          "type": "address"
        }
      ],
      "name": "isApprovedForAll",
      "outputs": [
        {
          "internalType": "bool",
          "name": "",
          "type": "bool"
        }
      ],
      "stateMutability": "view",
      "type": "function"
    },
    {
      "inputs": [
        {
          "internalType": "string",
          "name": "_tokenURI",
          "type": "string"
        }
      ],
      "name": "mint",
      "outputs": [],
      "stateMutability": "nonpayable",
      "type": "function"
    },
    {
      "inputs": [],
      "name": "name",
      "outputs": [
        {
          "internalType": "string",
          "name": "",
          "type": "string"
        }
      ],
      "stateMutability": "view",
      "type": "function"
    },
    {
      "inputs": [
        {
          "internalType": "uint256",
          "name": "tokenId",
          "type": "uint256"
        }
      ],
      "name": "ownerOf",
      "outputs": [
        {
          "internalType": "address",
          "name": "",
          "type": "address"
        }
      ],
      "stateMutability": "view",
      "type": "function"
    },
    {
      "inputs": [
        {
          "internalType": "address",
          "name": "from",
          "type": "address"
        },
        {
          "internalType": "address",
          "name": "to",
          "type": "address"
        },
        {
          "internalType": "uint256",
          "name": "tokenId",
          "type": "uint256"
        }
      ],
      "name": "safeTransferFrom",
      "outputs": [],
      "stateMutability": "nonpayable",
      "type": "function"
    },
    {
      "inputs": [
        {
          "internalType": "address",
          "name": "from",
          "type": "address"
        },
        {
          "internalType": "address",
          "name": "to",
          "type": "address"
        },
        {
          "internalType": "uint256",
          "name": "tokenId",
          "type": "uint256"
        },
        {
          "internalType": "bytes",
          "name": "_data",
          "type": "bytes"
        }
      ],
      "name": "safeTransferFrom",
      "outputs": [],
      "stateMutability": "nonpayable",
      "type": "function"
    },
    {
      "inputs": [
        {
          "internalType": "address",
          "name": "operator",
          "type": "address"
        },
        {
          "internalType": "bool",
          "name": "approved",
          "type": "bool"
        }
      ],
      "name": "setApprovalForAll",
      "outputs": [],
      "stateMutability": "nonpayable",
      "type": "function"
    },
    {
      "inputs": [
        {
          "internalType": "bytes4",
          "name": "_interfaceId",
          "type": "bytes4"
        }
      ],
      "name": "supportsInterface",
      "outputs": [
        {
          "internalType": "bool",
          "name": "",
          "type": "bool"
        }
      ],
      "stateMutability": "view",
      "type": "function"
    },
    {
      "inputs": [],
      "name": "symbol",
      "outputs": [
        {
          "internalType": "string",
          "name": "",
          "type": "string"
        }
      ],
      "stateMutability": "view",
      "type": "function"
    },
    {
      "inputs": [
        {
          "internalType": "uint256",
          "name": "index",
          "type": "uint256"
        }
      ],
      "name": "tokenByIndex",
      "outputs": [
        {
          "internalType": "uint256",
          "name": "",
          "type": "uint256"
        }
      ],
      "stateMutability": "view",
      "type": "function"
    },
    {
      "inputs": [
        {
          "internalType": "address",
          "name": "owner",
          "type": "address"
        },
        {
          "internalType": "uint256",
          "name": "index",
          "type": "uint256"
        }
      ],
      "name": "tokenOfOwnerByIndex",
      "outputs": [
        {
          "internalType": "uint256",
          "name": "",
          "type": "uint256"
        }
      ],
      "stateMutability": "view",
      "type": "function"
    },
    {
      "inputs": [
        {
          "internalType": "uint256",
          "name": "tokenId",
          "type": "uint256"
        }
      ],
      "name": "tokenURI",
      "outputs": [
        {
          "internalType": "string",
          "name": "",
          "type": "string"
        }
      ],
      "stateMutability": "view",
      "type": "function"
    },
    {
      "inputs": [],
      "name": "totalSupply",
      "outputs": [
        {
          "internalType": "uint256",
          "name": "",
          "type": "uint256"
        }
      ],
      "stateMutability": "view",
      "type": "function"
    },
    {
      "inputs": [
        {
          "internalType": "address",
          "name": "from",
          "type": "address"
        },
        {
          "internalType": "address",
          "name": "to",
          "type": "address"
        },
        {
          "internalType": "uint256",
          "name": "tokenId",
          "type": "uint256"
        }
      ],
      "name": "transferFrom",
      "outputs": [],
      "stateMutability": "nonpayable",
      "type": "function"
    }
  ],
  "bytecode": "0x60806040526001600c553480156200001657600080fd5b50604051620036ff380380620036ff83398181016040528101906200003c9190620001a4565b818181600090805190602001906200005692919062000082565b5080600190805190602001906200006f92919062000082565b5050506001600b81905550505062000387565b8280546200009090620002ac565b90600052602060002090601f016020900481019282620000b4576000855562000100565b82601f10620000cf57805160ff191683800117855562000100565b8280016001018555821562000100579182015b82811115620000ff578251825591602001919060010190620000e2565b5b5090506200010f919062000113565b5090565b5b808211156200012e57600081600090555060010162000114565b5090565b600062000149620001438462000240565b62000217565b9050828152602081018484840111156200016257600080fd5b6200016f84828562000276565b509392505050565b600082601f8301126200018957600080fd5b81516200019b84826020860162000132565b91505092915050565b60008060408385031215620001b857600080fd5b600083015167ffffffffffffffff811115620001d357600080fd5b620001e18582860162000177565b925050602083015167ffffffffffffffff811115620001ff57600080fd5b6200020d8582860162000177565b9150509250929050565b60006200022362000236565b9050620002318282620002e2565b919050565b6000604051905090565b600067ffffffffffffffff8211156200025e576200025d62000347565b5b620002698262000376565b9050602081019050919050565b60005b838110156200029657808201518184015260208101905062000279565b83811115620002a6576000848401525b50505050565b60006002820490506001821680620002c557607f821691505b60208210811415620002dc57620002db62000318565b5b50919050565b620002ed8262000376565b810181811067ffffffffffffffff821117156200030f576200030e62000347565b5b80604052505050565b7f4e487b7100000000000000000000000000000000000000000000000000000000600052602260045260246000fd5b7f4e487b7100000000000000000000000000000000000000000000000000000000600052604160045260246000fd5b6000601f19601f8301169050919050565b61336880620003976000396000f3fe608060405234801561001057600080fd5b506004361061010b5760003560e01c80634f6ccce7116100a2578063a22cb46511610071578063a22cb465146102de578063b88d4fde146102fa578063c87b56dd14610316578063d85d3d2714610346578063e985e9c5146103625761010b565b80634f6ccce7146102305780636352211e1461026057806370a082311461029057806395d89b41146102c05761010b565b806318160ddd116100de57806318160ddd146101aa57806323b872dd146101c85780632f745c59146101e457806342842e0e146102145761010b565b806301ffc9a71461011057806306fdde0314610140578063081812fc1461015e578063095ea7b31461018e575b600080fd5b61012a600480360381019061012591906122b0565b610392565b604051610137919061273d565b60405180910390f35b6101486103a4565b6040516101559190612758565b60405180910390f35b61017860048036038101906101739190612343565b610436565b60405161018591906126d6565b60405180910390f35b6101a860048036038101906101a39190612274565b6104bb565b005b6101b26105d3565b6040516101bf91906129ba565b60405180910390f35b6101e260048036038101906101dd919061216e565b6105e0565b005b6101fe60048036038101906101f99190612274565b610640565b60405161020b91906129ba565b60405180910390f35b61022e6004803603810190610229919061216e565b6106e5565b005b61024a60048036038101906102459190612343565b610705565b60405161025791906129ba565b60405180910390f35b61027a60048036038101906102759190612343565b61079c565b60405161028791906126d6565b60405180910390f35b6102aa60048036038101906102a59190612109565b61084e565b6040516102b791906129ba565b60405180910390f35b6102c8610906565b6040516102d59190612758565b60405180910390f35b6102f860048036038101906102f39190612238565b610998565b005b610314600480360381019061030f91906121bd565b6109ae565b005b610330600480360381019061032b9190612343565b610a10565b60405161033d9190612758565b60405180910390f35b610360600480360381019061035b9190612302565b610a22565b005b61037c60048036038101906103779190612132565b610a59565b604051610389919061273d565b60405180910390f35b600061039d82610aed565b9050919050565b6060600080546103b390612c10565b80601f01602080910402602001604051908101604052809291908181526020018280546103df90612c10565b801561042c5780601f106104015761010080835404028352916020019161042c565b820191906000526020600020905b81548152906001019060200180831161040f57829003601f168201915b5050505050905090565b600061044182610b67565b610480576040517f08c379a0000000000000000000000000000000000000000000000000000000008152600401610477906128fa565b60405180910390fd5b6004600083815260200190815260200160002060009054906101000a900473ffffffffffffffffffffffffffffffffffffffff169050919050565b60006104c68261079c565b90508073ffffffffffffffffffffffffffffffffffffffff168373ffffffffffffffffffffffffffffffffffffffff161415610537576040517f08c379a000000000000000000000000000000000000000000000000000000000815260040161052e9061295a565b60405180910390fd5b8073ffffffffffffffffffffffffffffffffffffffff16610556610bd3565b73ffffffffffffffffffffffffffffffffffffffff16148061058557506105848161057f610bd3565b610a59565b5b6105c4576040517f08c379a00000000000000000000000000000000000000000000000000000000081526004016105bb9061283a565b60405180910390fd5b6105ce8383610bdb565b505050565b6000600980549050905090565b6105f16105eb610bd3565b82610c94565b610630576040517f08c379a00000000000000000000000000000000000000000000000000000000081526004016106279061297a565b60405180910390fd5b61063b838383610d72565b505050565b600061064b8361084e565b821061068c576040517f08c379a00000000000000000000000000000000000000000000000000000000081526004016106839061277a565b60405180910390fd5b600760008473ffffffffffffffffffffffffffffffffffffffff1673ffffffffffffffffffffffffffffffffffffffff168152602001908152602001600020600083815260200190815260200160002054905092915050565b610700838383604051806020016040528060008152506109ae565b505050565b600061070f6105d3565b8210610750576040517f08c379a00000000000000000000000000000000000000000000000000000000081526004016107479061299a565b60405180910390fd5b6009828154811061078a577f4e487b7100000000000000000000000000000000000000000000000000000000600052603260045260246000fd5b90600052602060002001549050919050565b6000806002600084815260200190815260200160002060009054906101000a900473ffffffffffffffffffffffffffffffffffffffff169050600073ffffffffffffffffffffffffffffffffffffffff168173ffffffffffffffffffffffffffffffffffffffff161415610845576040517f08c379a000000000000000000000000000000000000000000000000000000000815260040161083c9061287a565b60405180910390fd5b80915050919050565b60008073ffffffffffffffffffffffffffffffffffffffff168273ffffffffffffffffffffffffffffffffffffffff1614156108bf576040517f08c379a00000000000000000000000000000000000000000000000000000000081526004016108b69061285a565b60405180910390fd5b600360008373ffffffffffffffffffffffffffffffffffffffff1673ffffffffffffffffffffffffffffffffffffffff168152602001908152602001600020549050919050565b60606001805461091590612c10565b80601f016020809104026020016040519081016040528092919081815260200182805461094190612c10565b801561098e5780601f106109635761010080835404028352916020019161098e565b820191906000526020600020905b81548152906001019060200180831161097157829003601f168201915b5050505050905090565b6109aa6109a3610bd3565b8383610fce565b5050565b6109bf6109b9610bd3565b83610c94565b6109fe576040517f08c379a00000000000000000000000000000000000000000000000000000000081526004016109f59061297a565b60405180910390fd5b610a0a8484848461113b565b50505050565b6060610a1b82611197565b9050919050565b6000600c549050610a3333826112e9565b610a3d81836114b7565b600c6000815480929190610a5090612c73565b91905055505050565b6000600560008473ffffffffffffffffffffffffffffffffffffffff1673ffffffffffffffffffffffffffffffffffffffff16815260200190815260200160002060008373ffffffffffffffffffffffffffffffffffffffff1673ffffffffffffffffffffffffffffffffffffffff16815260200190815260200160002060009054906101000a900460ff16905092915050565b60007f780e9d63000000000000000000000000000000000000000000000000000000007bffffffffffffffffffffffffffffffffffffffffffffffffffffffff1916827bffffffffffffffffffffffffffffffffffffffffffffffffffffffff19161480610b605750610b5f8261152b565b5b9050919050565b60008073ffffffffffffffffffffffffffffffffffffffff166002600084815260200190815260200160002060009054906101000a900473ffffffffffffffffffffffffffffffffffffffff1673ffffffffffffffffffffffffffffffffffffffff1614159050919050565b600033905090565b816004600083815260200190815260200160002060006101000a81548173ffffffffffffffffffffffffffffffffffffffff021916908373ffffffffffffffffffffffffffffffffffffffff160217905550808273ffffffffffffffffffffffffffffffffffffffff16610c4e8361079c565b73ffffffffffffffffffffffffffffffffffffffff167f8c5be1e5ebec7d5bd14f71427d1e84f3dd0314c0f7b2291e5b200ac8c7c3b92560405160405180910390a45050565b6000610c9f82610b67565b610cde576040517f08c379a0000000000000000000000000000000000000000000000000000000008152600401610cd59061281a565b60405180910390fd5b6000610ce98361079c565b90508073ffffffffffffffffffffffffffffffffffffffff168473ffffffffffffffffffffffffffffffffffffffff161480610d5857508373ffffffffffffffffffffffffffffffffffffffff16610d4084610436565b73ffffffffffffffffffffffffffffffffffffffff16145b80610d695750610d688185610a59565b5b91505092915050565b8273ffffffffffffffffffffffffffffffffffffffff16610d928261079c565b73ffffffffffffffffffffffffffffffffffffffff1614610de8576040517f08c379a0000000000000000000000000000000000000000000000000000000008152600401610ddf9061291a565b60405180910390fd5b600073ffffffffffffffffffffffffffffffffffffffff168273ffffffffffffffffffffffffffffffffffffffff161415610e58576040517f08c379a0000000000000000000000000000000000000000000000000000000008152600401610e4f906127da565b60405180910390fd5b610e6383838361160d565b610e6e600082610bdb565b6001600360008573ffffffffffffffffffffffffffffffffffffffff1673ffffffffffffffffffffffffffffffffffffffff1681526020019081526020016000206000828254610ebe9190612b26565b925050819055506001600360008473ffffffffffffffffffffffffffffffffffffffff1673ffffffffffffffffffffffffffffffffffffffff1681526020019081526020016000206000828254610f159190612a9f565b92505081905550816002600083815260200190815260200160002060006101000a81548173ffffffffffffffffffffffffffffffffffffffff021916908373ffffffffffffffffffffffffffffffffffffffff160217905550808273ffffffffffffffffffffffffffffffffffffffff168473ffffffffffffffffffffffffffffffffffffffff167fddf252ad1be2c89b69c2b068fc378daa952ba7f163c4a11628f55a4df523b3ef60405160405180910390a4505050565b8173ffffffffffffffffffffffffffffffffffffffff168373ffffffffffffffffffffffffffffffffffffffff16141561103d576040517f08c379a0000000000000000000000000000000000000000000000000000000008152600401611034906127fa565b60405180910390fd5b80600560008573ffffffffffffffffffffffffffffffffffffffff1673ffffffffffffffffffffffffffffffffffffffff16815260200190815260200160002060008473ffffffffffffffffffffffffffffffffffffffff1673ffffffffffffffffffffffffffffffffffffffff16815260200190815260200160002060006101000a81548160ff0219169083151502179055508173ffffffffffffffffffffffffffffffffffffffff168373ffffffffffffffffffffffffffffffffffffffff167f17307eab39ab6107e8899845ad3d59bd9653f200f220920489ca2b5937696c318360405161112e919061273d565b60405180910390a3505050565b611146848484610d72565b6111528484848461161d565b611191576040517f08c379a00000000000000000000000000000000000000000000000000000000081526004016111889061279a565b60405180910390fd5b50505050565b60606111a282610b67565b6111e1576040517f08c379a00000000000000000000000000000000000000000000000000000000081526004016111d8906128da565b60405180910390fd5b600060066000848152602001908152602001600020805461120190612c10565b80601f016020809104026020016040519081016040528092919081815260200182805461122d90612c10565b801561127a5780601f1061124f5761010080835404028352916020019161127a565b820191906000526020600020905b81548152906001019060200180831161125d57829003601f168201915b50505050509050600061128b6117b4565b90506000815114156112a15781925050506112e4565b6000825111156112d65780826040516020016112be9291906126b2565b604051602081830303815290604052925050506112e4565b6112df846117cb565b925050505b919050565b600073ffffffffffffffffffffffffffffffffffffffff168273ffffffffffffffffffffffffffffffffffffffff161415611359576040517f08c379a0000000000000000000000000000000000000000000000000000000008152600401611350906128ba565b60405180910390fd5b61136281610b67565b156113a2576040517f08c379a0000000000000000000000000000000000000000000000000000000008152600401611399906127ba565b60405180910390fd5b6113ae6000838361160d565b6001600360008473ffffffffffffffffffffffffffffffffffffffff1673ffffffffffffffffffffffffffffffffffffffff16815260200190815260200160002060008282546113fe9190612a9f565b92505081905550816002600083815260200190815260200160002060006101000a81548173ffffffffffffffffffffffffffffffffffffffff021916908373ffffffffffffffffffffffffffffffffffffffff160217905550808273ffffffffffffffffffffffffffffffffffffffff16600073ffffffffffffffffffffffffffffffffffffffff167fddf252ad1be2c89b69c2b068fc378daa952ba7f163c4a11628f55a4df523b3ef60405160405180910390a45050565b6114c082610b67565b6114ff576040517f08c379a00000000000000000000000000000000000000000000000000000000081526004016114f69061289a565b60405180910390fd5b80600660008481526020019081526020016000209080519060200190611526929190611f2d565b505050565b60007f80ac58cd000000000000000000000000000000000000000000000000000000007bffffffffffffffffffffffffffffffffffffffffffffffffffffffff1916827bffffffffffffffffffffffffffffffffffffffffffffffffffffffff191614806115f657507f5b5e139f000000000000000000000000000000000000000000000000000000007bffffffffffffffffffffffffffffffffffffffffffffffffffffffff1916827bffffffffffffffffffffffffffffffffffffffffffffffffffffffff1916145b80611606575061160582611872565b5b9050919050565b6116188383836118dc565b505050565b600061163e8473ffffffffffffffffffffffffffffffffffffffff166119f0565b156117a7578373ffffffffffffffffffffffffffffffffffffffff1663150b7a02611667610bd3565b8786866040518563ffffffff1660e01b815260040161168994939291906126f1565b602060405180830381600087803b1580156116a357600080fd5b505af19250505080156116d457506040513d601f19601f820116820180604052508101906116d191906122d9565b60015b611757573d8060008114611704576040519150601f19603f3d011682016040523d82523d6000602084013e611709565b606091505b5060008151141561174f576040517f08c379a00000000000000000000000000000000000000000000000000000000081526004016117469061279a565b60405180910390fd5b805181602001fd5b63150b7a0260e01b7bffffffffffffffffffffffffffffffffffffffffffffffffffffffff1916817bffffffffffffffffffffffffffffffffffffffffffffffffffffffff1916149150506117ac565b600190505b949350505050565b606060405180602001604052806000815250905090565b60606117d682610b67565b611815576040517f08c379a000000000000000000000000000000000000000000000000000000000815260040161180c9061293a565b60405180910390fd5b600061181f6117b4565b9050600081511161183f576040518060200160405280600081525061186a565b8061184984611a03565b60405160200161185a9291906126b2565b6040516020818303038152906040525b915050919050565b60007f01ffc9a7000000000000000000000000000000000000000000000000000000007bffffffffffffffffffffffffffffffffffffffffffffffffffffffff1916827bffffffffffffffffffffffffffffffffffffffffffffffffffffffff1916149050919050565b6118e7838383611bb0565b600073ffffffffffffffffffffffffffffffffffffffff168373ffffffffffffffffffffffffffffffffffffffff16141561192a5761192581611bb5565b611969565b8173ffffffffffffffffffffffffffffffffffffffff168373ffffffffffffffffffffffffffffffffffffffff1614611968576119678382611bfe565b5b5b600073ffffffffffffffffffffffffffffffffffffffff168273ffffffffffffffffffffffffffffffffffffffff1614156119ac576119a781611d6b565b6119eb565b8273ffffffffffffffffffffffffffffffffffffffff168273ffffffffffffffffffffffffffffffffffffffff16146119ea576119e98282611eae565b5b5b505050565b600080823b905060008111915050919050565b60606000821415611a4b576040518060400160405280600181526020017f30000000000000000000000000000000000000000000000000000000000000008152509050611bab565b600082905060005b60008214611a7d578080611a6690612c73565b915050600a82611a769190612af5565b9150611a53565b60008167ffffffffffffffff811115611abf577f4e487b7100000000000000000000000000000000000000000000000000000000600052604160045260246000fd5b6040519080825280601f01601f191660200182016040528015611af15781602001600182028036833780820191505090505b5090505b60008514611ba457600182611b0a9190612b26565b9150600a85611b199190612cbc565b6030611b259190612a9f565b60f81b818381518110611b61577f4e487b7100000000000000000000000000000000000000000000000000000000600052603260045260246000fd5b60200101907effffffffffffffffffffffffffffffffffffffffffffffffffffffffffffff1916908160001a905350600a85611b9d9190612af5565b9450611af5565b8093505050505b919050565b505050565b600980549050600a600083815260200190815260200160002081905550600981908060018154018082558091505060019003906000526020600020016000909190919091505550565b60006001611c0b8461084e565b611c159190612b26565b9050600060086000848152602001908152602001600020549050818114611cfa576000600760008673ffffffffffffffffffffffffffffffffffffffff1673ffffffffffffffffffffffffffffffffffffffff168152602001908152602001600020600084815260200190815260200160002054905080600760008773ffffffffffffffffffffffffffffffffffffffff1673ffffffffffffffffffffffffffffffffffffffff168152602001908152602001600020600084815260200190815260200160002081905550816008600083815260200190815260200160002081905550505b6008600084815260200190815260200160002060009055600760008573ffffffffffffffffffffffffffffffffffffffff1673ffffffffffffffffffffffffffffffffffffffff16815260200190815260200160002060008381526020019081526020016000206000905550505050565b60006001600980549050611d7f9190612b26565b90506000600a6000848152602001908152602001600020549050600060098381548110611dd5577f4e487b7100000000000000000000000000000000000000000000000000000000600052603260045260246000fd5b906000526020600020015490508060098381548110611e1d577f4e487b7100000000000000000000000000000000000000000000000000000000600052603260045260246000fd5b906000526020600020018190555081600a600083815260200190815260200160002081905550600a6000858152602001908152602001600020600090556009805480611e92577f4e487b7100000000000000000000000000000000000000000000000000000000600052603160045260246000fd5b6001900381819060005260206000200160009055905550505050565b6000611eb98361084e565b905081600760008573ffffffffffffffffffffffffffffffffffffffff1673ffffffffffffffffffffffffffffffffffffffff168152602001908152602001600020600083815260200190815260200160002081905550806008600084815260200190815260200160002081905550505050565b828054611f3990612c10565b90600052602060002090601f016020900481019282611f5b5760008555611fa2565b82601f10611f7457805160ff1916838001178555611fa2565b82800160010185558215611fa2579182015b82811115611fa1578251825591602001919060010190611f86565b5b509050611faf9190611fb3565b5090565b5b80821115611fcc576000816000905550600101611fb4565b5090565b6000611fe3611fde846129fa565b6129d5565b905082815260208101848484011115611ffb57600080fd5b612006848285612bce565b509392505050565b600061202161201c84612a2b565b6129d5565b90508281526020810184848401111561203957600080fd5b612044848285612bce565b509392505050565b60008135905061205b816132d6565b92915050565b600081359050612070816132ed565b92915050565b60008135905061208581613304565b92915050565b60008151905061209a81613304565b92915050565b600082601f8301126120b157600080fd5b81356120c1848260208601611fd0565b91505092915050565b600082601f8301126120db57600080fd5b81356120eb84826020860161200e565b91505092915050565b6000813590506121038161331b565b92915050565b60006020828403121561211b57600080fd5b60006121298482850161204c565b91505092915050565b6000806040838503121561214557600080fd5b60006121538582860161204c565b92505060206121648582860161204c565b9150509250929050565b60008060006060848603121561218357600080fd5b60006121918682870161204c565b93505060206121a28682870161204c565b92505060406121b3868287016120f4565b9150509250925092565b600080600080608085870312156121d357600080fd5b60006121e18782880161204c565b94505060206121f28782880161204c565b9350506040612203878288016120f4565b925050606085013567ffffffffffffffff81111561222057600080fd5b61222c878288016120a0565b91505092959194509250565b6000806040838503121561224b57600080fd5b60006122598582860161204c565b925050602061226a85828601612061565b9150509250929050565b6000806040838503121561228757600080fd5b60006122958582860161204c565b92505060206122a6858286016120f4565b9150509250929050565b6000602082840312156122c257600080fd5b60006122d084828501612076565b91505092915050565b6000602082840312156122eb57600080fd5b60006122f98482850161208b565b91505092915050565b60006020828403121561231457600080fd5b600082013567ffffffffffffffff81111561232e57600080fd5b61233a848285016120ca565b91505092915050565b60006020828403121561235557600080fd5b6000612363848285016120f4565b91505092915050565b61237581612b5a565b82525050565b61238481612b6c565b82525050565b600061239582612a5c565b61239f8185612a72565b93506123af818560208601612bdd565b6123b881612da9565b840191505092915050565b60006123ce82612a67565b6123d88185612a83565b93506123e8818560208601612bdd565b6123f181612da9565b840191505092915050565b600061240782612a67565b6124118185612a94565b9350612421818560208601612bdd565b80840191505092915050565b600061243a602b83612a83565b915061244582612dba565b604082019050919050565b600061245d603283612a83565b915061246882612e09565b604082019050919050565b6000612480601c83612a83565b915061248b82612e58565b602082019050919050565b60006124a3602483612a83565b91506124ae82612e81565b604082019050919050565b60006124c6601983612a83565b91506124d182612ed0565b602082019050919050565b60006124e9602c83612a83565b91506124f482612ef9565b604082019050919050565b600061250c603883612a83565b915061251782612f48565b604082019050919050565b600061252f602a83612a83565b915061253a82612f97565b604082019050919050565b6000612552602983612a83565b915061255d82612fe6565b604082019050919050565b6000612575602e83612a83565b915061258082613035565b604082019050919050565b6000612598602083612a83565b91506125a382613084565b602082019050919050565b60006125bb603183612a83565b91506125c6826130ad565b604082019050919050565b60006125de602c83612a83565b91506125e9826130fc565b604082019050919050565b6000612601602983612a83565b915061260c8261314b565b604082019050919050565b6000612624602f83612a83565b915061262f8261319a565b604082019050919050565b6000612647602183612a83565b9150612652826131e9565b604082019050919050565b600061266a603183612a83565b915061267582613238565b604082019050919050565b600061268d602c83612a83565b915061269882613287565b604082019050919050565b6126ac81612bc4565b82525050565b60006126be82856123fc565b91506126ca82846123fc565b91508190509392505050565b60006020820190506126eb600083018461236c565b92915050565b6000608082019050612706600083018761236c565b612713602083018661236c565b61272060408301856126a3565b8181036060830152612732818461238a565b905095945050505050565b6000602082019050612752600083018461237b565b92915050565b6000602082019050818103600083015261277281846123c3565b905092915050565b600060208201905081810360008301526127938161242d565b9050919050565b600060208201905081810360008301526127b381612450565b9050919050565b600060208201905081810360008301526127d381612473565b9050919050565b600060208201905081810360008301526127f381612496565b9050919050565b60006020820190508181036000830152612813816124b9565b9050919050565b60006020820190508181036000830152612833816124dc565b9050919050565b60006020820190508181036000830152612853816124ff565b9050919050565b6000602082019050818103600083015261287381612522565b9050919050565b6000602082019050818103600083015261289381612545565b9050919050565b600060208201905081810360008301526128b381612568565b9050919050565b600060208201905081810360008301526128d38161258b565b9050919050565b600060208201905081810360008301526128f3816125ae565b9050919050565b60006020820190508181036000830152612913816125d1565b9050919050565b60006020820190508181036000830152612933816125f4565b9050919050565b6000602082019050818103600083015261295381612617565b9050919050565b600060208201905081810360008301526129738161263a565b9050919050565b600060208201905081810360008301526129938161265d565b9050919050565b600060208201905081810360008301526129b381612680565b9050919050565b60006020820190506129cf60008301846126a3565b92915050565b60006129df6129f0565b90506129eb8282612c42565b919050565b6000604051905090565b600067ffffffffffffffff821115612a1557612a14612d7a565b5b612a1e82612da9565b9050602081019050919050565b600067ffffffffffffffff821115612a4657612a45612d7a565b5b612a4f82612da9565b9050602081019050919050565b600081519050919050565b600081519050919050565b600082825260208201905092915050565b600082825260208201905092915050565b600081905092915050565b6000612aaa82612bc4565b9150612ab583612bc4565b9250827fffffffffffffffffffffffffffffffffffffffffffffffffffffffffffffffff03821115612aea57612ae9612ced565b5b828201905092915050565b6000612b0082612bc4565b9150612b0b83612bc4565b925082612b1b57612b1a612d1c565b5b828204905092915050565b6000612b3182612bc4565b9150612b3c83612bc4565b925082821015612b4f57612b4e612ced565b5b828203905092915050565b6000612b6582612ba4565b9050919050565b60008115159050919050565b60007fffffffff0000000000000000000000000000000000000000000000000000000082169050919050565b600073ffffffffffffffffffffffffffffffffffffffff82169050919050565b6000819050919050565b82818337600083830152505050565b60005b83811015612bfb578082015181840152602081019050612be0565b83811115612c0a576000848401525b50505050565b60006002820490506001821680612c2857607f821691505b60208210811415612c3c57612c3b612d4b565b5b50919050565b612c4b82612da9565b810181811067ffffffffffffffff82111715612c6a57612c69612d7a565b5b80604052505050565b6000612c7e82612bc4565b91507fffffffffffffffffffffffffffffffffffffffffffffffffffffffffffffffff821415612cb157612cb0612ced565b5b600182019050919050565b6000612cc782612bc4565b9150612cd283612bc4565b925082612ce257612ce1612d1c565b5b828206905092915050565b7f4e487b7100000000000000000000000000000000000000000000000000000000600052601160045260246000fd5b7f4e487b7100000000000000000000000000000000000000000000000000000000600052601260045260246000fd5b7f4e487b7100000000000000000000000000000000000000000000000000000000600052602260045260246000fd5b7f4e487b7100000000000000000000000000000000000000000000000000000000600052604160045260246000fd5b6000601f19601f8301169050919050565b7f455243373231456e756d657261626c653a206f776e657220696e646578206f7560008201527f74206f6620626f756e6473000000000000000000000000000000000000000000602082015250565b7f4552433732313a207472616e7366657220746f206e6f6e20455243373231526560008201527f63656976657220696d706c656d656e7465720000000000000000000000000000602082015250565b7f4552433732313a20746f6b656e20616c7265616479206d696e74656400000000600082015250565b7f4552433732313a207472616e7366657220746f20746865207a65726f2061646460008201527f7265737300000000000000000000000000000000000000000000000000000000602082015250565b7f4552433732313a20617070726f766520746f2063616c6c657200000000000000600082015250565b7f4552433732313a206f70657261746f7220717565727920666f72206e6f6e657860008201527f697374656e7420746f6b656e0000000000000000000000000000000000000000602082015250565b7f4552433732313a20617070726f76652063616c6c6572206973206e6f74206f7760008201527f6e6572206e6f7220617070726f76656420666f7220616c6c0000000000000000602082015250565b7f4552433732313a2062616c616e636520717565727920666f7220746865207a6560008201527f726f206164647265737300000000000000000000000000000000000000000000602082015250565b7f4552433732313a206f776e657220717565727920666f72206e6f6e657869737460008201527f656e7420746f6b656e0000000000000000000000000000000000000000000000602082015250565b7f45524337323155524953746f726167653a2055524920736574206f66206e6f6e60008201527f6578697374656e7420746f6b656e000000000000000000000000000000000000602082015250565b7f4552433732313a206d696e7420746f20746865207a65726f2061646472657373600082015250565b7f45524337323155524953746f726167653a2055524920717565727920666f722060008201527f6e6f6e6578697374656e7420746f6b656e000000000000000000000000000000602082015250565b7f4552433732313a20617070726f76656420717565727920666f72206e6f6e657860008201527f697374656e7420746f6b656e0000000000000000000000000000000000000000602082015250565b7f4552433732313a207472616e73666572206f6620746f6b656e2074686174206960008201527f73206e6f74206f776e0000000000000000000000000000000000000000000000602082015250565b7f4552433732314d657461646174613a2055524920717565727920666f72206e6f60008201527f6e6578697374656e7420746f6b656e0000000000000000000000000000000000602082015250565b7f4552433732313a20617070726f76616c20746f2063757272656e74206f776e6560008201527f7200000000000000000000000000000000000000000000000000000000000000602082015250565b7f4552433732313a207472616e736665722063616c6c6572206973206e6f74206f60008201527f776e6572206e6f7220617070726f766564000000000000000000000000000000602082015250565b7f455243373231456e756d657261626c653a20676c6f62616c20696e646578206f60008201527f7574206f6620626f756e64730000000000000000000000000000000000000000602082015250565b6132df81612b5a565b81146132ea57600080fd5b50565b6132f681612b6c565b811461330157600080fd5b50565b61330d81612b78565b811461331857600080fd5b50565b61332481612bc4565b811461332f57600080fd5b5056fea26469706673582212207cddab68952fc96cba8e1c90812911673593dcb74118731010eb88de42806eab64736f6c63430008040033",
  "linkReferences": {},
  "deployedLinkReferences": {}
}